{
  "contractName": "SimpleStorage",
  "abi": [
    {
      "constant": true,
      "inputs": [
        {
          "name": "",
          "type": "uint256"
        }
      ],
      "name": "storedData",
      "outputs": [
        {
          "name": "filehash",
          "type": "string"
        },
        {
          "name": "filename",
          "type": "string"
        },
        {
          "name": "owner",
          "type": "string"
        }
      ],
      "payable": false,
      "stateMutability": "view",
      "type": "function",
      "signature": "0x30377174"
    },
    {
      "constant": false,
      "inputs": [
        {
          "name": "hash",
          "type": "string"
        },
        {
          "name": "filename",
          "type": "string"
        },
        {
          "name": "owner",
          "type": "string"
        }
      ],
      "name": "setFilemsg",
      "outputs": [
        {
          "name": "",
          "type": "uint256"
        }
      ],
      "payable": false,
      "stateMutability": "nonpayable",
      "type": "function",
      "signature": "0x4e118141"
    },
    {
      "constant": true,
      "inputs": [
        {
          "name": "a",
          "type": "string"
        },
        {
          "name": "b",
          "type": "string"
        }
      ],
      "name": "utilCompareInternal",
      "outputs": [
        {
          "name": "",
          "type": "uint256"
        }
      ],
      "payable": false,
      "stateMutability": "pure",
      "type": "function",
      "signature": "0x8ddbeb07"
    },
    {
      "constant": true,
      "inputs": [],
      "name": "getFile",
      "outputs": [
        {
          "components": [
            {
              "name": "filehash",
              "type": "string"
            },
            {
              "name": "filename",
              "type": "string"
            },
            {
              "name": "owner",
              "type": "string"
            }
          ],
          "name": "",
          "type": "tuple[]"
        }
      ],
      "payable": false,
      "stateMutability": "view",
      "type": "function",
      "signature": "0x2fa81692"
    },
    {
      "constant": true,
      "inputs": [],
      "name": "getBlocknumber",
      "outputs": [
        {
          "name": "",
          "type": "uint256"
        }
      ],
      "payable": false,
      "stateMutability": "view",
      "type": "function",
      "signature": "0xc8d2db78"
    },
    {
      "constant": true,
      "inputs": [],
      "name": "getUserbalance",
      "outputs": [
        {
          "name": "",
          "type": "uint256"
        }
      ],
      "payable": false,
      "stateMutability": "view",
      "type": "function",
      "signature": "0x86d1a26b"
    },
    {
      "constant": true,
      "inputs": [],
      "name": "getUser",
      "outputs": [
        {
          "name": "",
          "type": "address"
        }
      ],
      "payable": false,
      "stateMutability": "view",
      "type": "function",
      "signature": "0x832880e7"
    },
    {
      "constant": false,
      "inputs": [],
      "name": "addFilenumber",
      "outputs": [],
      "payable": false,
      "stateMutability": "nonpayable",
      "type": "function",
      "signature": "0xd504af39"
    },
    {
      "constant": true,
      "inputs": [],
      "name": "getFilenumber",
      "outputs": [
        {
          "name": "",
          "type": "uint256"
        }
      ],
      "payable": false,
      "stateMutability": "view",
      "type": "function",
      "signature": "0x86ac9626"
    }
  ],
  "bytecode": "0x6080604052600060015533600260006101000a81548173ffffffffffffffffffffffffffffffffffffffff021916908373ffffffffffffffffffffffffffffffffffffffff16021790555034801561005657600080fd5b50611010806100666000396000f3fe608060405260043610610099576000357c0100000000000000000000000000000000000000000000000000000000900463ffffffff1680632fa816921461009e57806330377174146100c95780634e11814114610108578063832880e71461014557806386ac96261461017057806386d1a26b1461019b5780638ddbeb07146101c6578063c8d2db7814610203578063d504af391461022e575b600080fd5b3480156100aa57600080fd5b506100b3610245565b6040516100c09190610e2b565b60405180910390f35b3480156100d557600080fd5b506100f060048036036100eb9190810190610cc7565b61048b565b6040516100ff93929190610e4d565b60405180910390f35b34801561011457600080fd5b5061012f600480360361012a9190810190610c30565b61068c565b60405161013c9190610e99565b60405180910390f35b34801561015157600080fd5b5061015a610901565b6040516101679190610e10565b60405180910390f35b34801561017c57600080fd5b50610185610909565b6040516101929190610e99565b60405180910390f35b3480156101a757600080fd5b506101b0610913565b6040516101bd9190610e99565b60405180910390f35b3480156101d257600080fd5b506101ed60048036036101e89190810190610bc4565b610932565b6040516101fa9190610e99565b60405180910390f35b34801561020f57600080fd5b50610218610a77565b6040516102259190610e99565b60405180910390f35b34801561023a57600080fd5b50610243610a7f565b005b60606000805480602002602001604051908101604052809291908181526020016000905b82821015610482578382906000526020600020906003020160606040519081016040529081600082018054600181600116156101000203166002900480601f0160208091040260200160405190810160405280929190818152602001828054600181600116156101000203166002900480156103265780601f106102fb57610100808354040283529160200191610326565b820191906000526020600020905b81548152906001019060200180831161030957829003601f168201915b50505050508152602001600182018054600181600116156101000203166002900480601f0160208091040260200160405190810160405280929190818152602001828054600181600116156101000203166002900480156103c85780601f1061039d576101008083540402835291602001916103c8565b820191906000526020600020905b8154815290600101906020018083116103ab57829003601f168201915b50505050508152602001600282018054600181600116156101000203166002900480601f01602080910402602001604051908101604052809291908181526020018280546001816001161561010002031660029004801561046a5780601f1061043f5761010080835404028352916020019161046a565b820191906000526020600020905b81548152906001019060200180831161044d57829003601f168201915b50505050508152505081526020019060010190610269565b50505050905090565b60008181548110151561049a57fe5b9060005260206000209060030201600091509050806000018054600181600116156101000203166002900480601f0160208091040260200160405190810160405280929190818152602001828054600181600116156101000203166002900480156105465780601f1061051b57610100808354040283529160200191610546565b820191906000526020600020905b81548152906001019060200180831161052957829003601f168201915b505050505090806001018054600181600116156101000203166002900480601f0160208091040260200160405190810160405280929190818152602001828054600181600116156101000203166002900480156105e45780601f106105b9576101008083540402835291602001916105e4565b820191906000526020600020905b8154815290600101906020018083116105c757829003601f168201915b505050505090806002018054600181600116156101000203166002900480601f0160208091040260200160405190810160405280929190818152602001828054600181600116156101000203166002900480156106825780601f1061065757610100808354040283529160200191610682565b820191906000526020600020905b81548152906001019060200180831161066557829003601f168201915b5050505050905083565b6000806001905061069b610a93565b60606040519081016040528087815260200186815260200185815250905060008080549050111561085657600080905060008054905081101561085057600161079c886000848154811015156106ed57fe5b90600052602060002090600302016000018054600181600116156101000203166002900480601f0160208091040260200160405190810160405280929190818152602001828054600181600116156101000203166002900480156107925780601f1061076757610100808354040283529160200191610792565b820191906000526020600020905b81548152906001019060200180831161077557829003601f168201915b5050505050610932565b1415610841576000829080600181540180825580915050906001820390600052602060002090600302016000909192909190915060008201518160000190805190602001906107ec929190610ab5565b506020820151816001019080519060200190610809929190610ab5565b506040820151816002019080519060200190610826929190610ab5565b50505050610832610a7f565b600192508293505050506108fa565b600092508293505050506108fa565b506108f4565b6000819080600181540180825580915050906001820390600052602060002090600302016000909192909190915060008201518160000190805190602001906108a0929190610ab5565b5060208201518160010190805190602001906108bd929190610ab5565b5060408201518160020190805190602001906108da929190610ab5565b505050506108e6610a7f565b6001915081925050506108fa565b81925050505b9392505050565b600033905090565b6000600154905090565b60003373ffffffffffffffffffffffffffffffffffffffff1631905090565b6000815183511415156109485760019050610a71565b60008090505b8351811015610a6b57828181518110151561096557fe5b9060200101517f010000000000000000000000000000000000000000000000000000000000000090047f0100000000000000000000000000000000000000000000000000000000000000027effffffffffffffffffffffffffffffffffffffffffffffffffffffffffffff191684828151811015156109e057fe5b9060200101517f010000000000000000000000000000000000000000000000000000000000000090047f0100000000000000000000000000000000000000000000000000000000000000027effffffffffffffffffffffffffffffffffffffffffffffffffffffffffffff1916141515610a5e576001915050610a71565b808060010191505061094e565b50600090505b92915050565b600043905090565b600160008154809291906001019190505550565b6060604051908101604052806060815260200160608152602001606081525090565b828054600181600116156101000203166002900490600052602060002090601f016020900481019282601f10610af657805160ff1916838001178555610b24565b82800160010185558215610b24579182015b82811115610b23578251825591602001919060010190610b08565b5b509050610b319190610b35565b5090565b610b5791905b80821115610b53576000816000905550600101610b3b565b5090565b90565b600082601f8301121515610b6d57600080fd5b8135610b80610b7b82610ee1565b610eb4565b91508082526020830160208301858383011115610b9c57600080fd5b610ba7838284610f83565b50505092915050565b6000610bbc8235610f79565b905092915050565b60008060408385031215610bd757600080fd5b600083013567ffffffffffffffff811115610bf157600080fd5b610bfd85828601610b5a565b925050602083013567ffffffffffffffff811115610c1a57600080fd5b610c2685828601610b5a565b9150509250929050565b600080600060608486031215610c4557600080fd5b600084013567ffffffffffffffff811115610c5f57600080fd5b610c6b86828701610b5a565b935050602084013567ffffffffffffffff811115610c8857600080fd5b610c9486828701610b5a565b925050604084013567ffffffffffffffff811115610cb157600080fd5b610cbd86828701610b5a565b9150509250925092565b600060208284031215610cd957600080fd5b6000610ce784828501610bb0565b91505092915050565b610cf981610f3d565b82525050565b6000610d0a82610f1a565b80845260208401935083602082028501610d2385610f0d565b60005b84811015610d5c578383038852610d3e838351610da3565b9250610d4982610f30565b9150602088019750600181019050610d26565b508196508694505050505092915050565b6000610d7882610f25565b808452610d8c816020860160208601610f92565b610d9581610fc5565b602085010191505092915050565b60006060830160008301518482036000860152610dc08282610d6d565b91505060208301518482036020860152610dda8282610d6d565b91505060408301518482036040860152610df48282610d6d565b9150508091505092915050565b610e0a81610f6f565b82525050565b6000602082019050610e256000830184610cf0565b92915050565b60006020820190508181036000830152610e458184610cff565b905092915050565b60006060820190508181036000830152610e678186610d6d565b90508181036020830152610e7b8185610d6d565b90508181036040830152610e8f8184610d6d565b9050949350505050565b6000602082019050610eae6000830184610e01565b92915050565b6000604051905081810181811067ffffffffffffffff82111715610ed757600080fd5b8060405250919050565b600067ffffffffffffffff821115610ef857600080fd5b601f19601f8301169050602081019050919050565b6000602082019050919050565b600081519050919050565b600081519050919050565b6000602082019050919050565b6000610f4882610f4f565b9050919050565b600073ffffffffffffffffffffffffffffffffffffffff82169050919050565b6000819050919050565b6000819050919050565b82818337600083830152505050565b60005b83811015610fb0578082015181840152602081019050610f95565b83811115610fbf576000848401525b50505050565b6000601f19601f830116905091905056fea265627a7a72305820af16579e231667c92707c3a8352fcf66645af4d369e4f58e5bfadd645d14dcee6c6578706572696d656e74616cf50037",
  "source": "pragma solidity >=0.4.31 <0.7.0;\npragma experimental ABIEncoderV2;\ncontract SimpleStorage {\n  struct Filemsg{\n    string filehash;\n    string filename;\n    string owner;\n  }\n  Filemsg[] public storedData;\n  uint filenumbers = 0;\n  address user = msg.sender;\n  function setFilemsg(string memory hash,string memory filename,string memory owner) public  returns(uint) {//x是想要存链的文件的hash,y是上传文件的时候上传的账户\n    uint flag = 1;\n    Filemsg  memory temp = Filemsg(hash,filename,owner);//中间变量\n    if(storedData.length>0){//如果当前数组里面已经有数据，就先判断是否已经存在\n     for(uint i = 0;i < storedData.length ; i ++ ){\n      if(utilCompareInternal(hash,storedData[i].filehash)==1)//hash值未存在,可以上传\n        {\n            storedData.push(temp);//将新数据加入\n            addFilenumber();//文件数目+1\n            flag = 1;//flag==1表示加入数据成功\n            return flag;\n        }\n        else{\n          flag = 0;//flag==0表示加入数据失败\n          return flag;\n        }\n        }\n    }\n    else{//如果当前数组里还没有数据，直接插入数据\n       storedData.push(temp);\n       addFilenumber();\n       flag = 1;\n       return flag;\n    }\n    return flag;\n}\n  function utilCompareInternal(string memory a, string memory b) public  pure  returns (uint) {\n    if (bytes(a).length != bytes(b).length) {\n        return 1;//说明两个字符串不等\n    }\n    for (uint i = 0; i < bytes(a).length; i ++) {\n        if(bytes(a)[i] != bytes(b)[i]) {\n            return 1;\n        }\n    }\n    return 0;//说明两个字符串相等\n}\n  function getFile() public view returns (Filemsg[] memory){\n    return storedData;\n  }\n  function getBlocknumber()  public  view returns (uint){\n    return block.number;\n  }\n  function getUserbalance() public view returns (uint){\n    return msg.sender.balance;\n  }\n   function getUser() public view returns (address){\n    return msg.sender;\n  }\n  function addFilenumber() public  {\n   filenumbers ++;\n  }\n   function getFilenumber() public view returns (uint){\n   return filenumbers ;\n  }\n\n}\n",
  "sourcePath": "D:/truffle/react/contracts/SimpleStorage.sol",
  "compiler": {
    "name": "solc",
    "version": "0.5.0+commit.1d4f565a.Emscripten.clang"
  },
  "schemaVersion": "3.0.1",
  "updatedAt": "2020-04-18T11:41:13.965Z",
  "devdoc": {
    "methods": {}
  },
  "userdoc": {
    "methods": {}
  }
}