{
  "contractName": "SimpleStorage",
  "abi": [
    {
      "constant": true,
      "inputs": [
        {
          "name": "",
          "type": "uint256"
        }
      ],
      "name": "storedData",
      "outputs": [
        {
          "name": "filehash",
          "type": "string"
        },
        {
          "name": "filename",
          "type": "string"
        },
        {
          "name": "owner",
          "type": "string"
        }
      ],
      "payable": false,
      "stateMutability": "view",
      "type": "function",
      "signature": "0x30377174"
    },
    {
      "constant": false,
      "inputs": [
        {
          "name": "hash",
          "type": "string"
        },
        {
          "name": "filename",
          "type": "string"
        },
        {
          "name": "owner",
          "type": "string"
        }
      ],
      "name": "setFilemsg",
      "outputs": [
        {
          "name": "",
          "type": "uint256"
        }
      ],
      "payable": false,
      "stateMutability": "nonpayable",
      "type": "function",
      "signature": "0x4e118141"
    },
    {
      "constant": true,
      "inputs": [
        {
          "name": "a",
          "type": "string"
        },
        {
          "name": "b",
          "type": "string"
        }
      ],
      "name": "utilCompareInternal",
      "outputs": [
        {
          "name": "",
          "type": "uint256"
        }
      ],
      "payable": false,
      "stateMutability": "pure",
      "type": "function",
      "signature": "0x8ddbeb07"
    },
    {
      "constant": true,
      "inputs": [],
      "name": "getFile",
      "outputs": [
        {
          "components": [
            {
              "name": "filehash",
              "type": "string"
            },
            {
              "name": "filename",
              "type": "string"
            },
            {
              "name": "owner",
              "type": "string"
            }
          ],
          "name": "",
          "type": "tuple[]"
        }
      ],
      "payable": false,
      "stateMutability": "view",
      "type": "function",
      "signature": "0x2fa81692"
    },
    {
      "constant": true,
      "inputs": [],
      "name": "getBlocknumber",
      "outputs": [
        {
          "name": "",
          "type": "uint256"
        }
      ],
      "payable": false,
      "stateMutability": "view",
      "type": "function",
      "signature": "0xc8d2db78"
    },
    {
      "constant": true,
      "inputs": [],
      "name": "getUserbalance",
      "outputs": [
        {
          "name": "",
          "type": "uint256"
        }
      ],
      "payable": false,
      "stateMutability": "view",
      "type": "function",
      "signature": "0x86d1a26b"
    },
    {
      "constant": true,
      "inputs": [],
      "name": "getUser",
      "outputs": [
        {
          "name": "",
          "type": "address"
        }
      ],
      "payable": false,
      "stateMutability": "view",
      "type": "function",
      "signature": "0x832880e7"
    },
    {
      "constant": false,
      "inputs": [],
      "name": "addFilenumber",
      "outputs": [],
      "payable": false,
      "stateMutability": "nonpayable",
      "type": "function",
      "signature": "0xd504af39"
    },
    {
      "constant": true,
      "inputs": [],
      "name": "getFilenumber",
      "outputs": [
        {
          "name": "",
          "type": "uint256"
        }
      ],
      "payable": false,
      "stateMutability": "view",
      "type": "function",
      "signature": "0x86ac9626"
    }
  ],
  "bytecode": "0x6080604052600060015533600260006101000a81548173ffffffffffffffffffffffffffffffffffffffff021916908373ffffffffffffffffffffffffffffffffffffffff16021790555034801561005657600080fd5b50611004806100666000396000f3fe608060405260043610610099576000357c0100000000000000000000000000000000000000000000000000000000900463ffffffff1680632fa816921461009e57806330377174146100c95780634e11814114610108578063832880e71461014557806386ac96261461017057806386d1a26b1461019b5780638ddbeb07146101c6578063c8d2db7814610203578063d504af391461022e575b600080fd5b3480156100aa57600080fd5b506100b3610245565b6040516100c09190610e1f565b60405180910390f35b3480156100d557600080fd5b506100f060048036036100eb9190810190610cbb565b61048b565b6040516100ff93929190610e41565b60405180910390f35b34801561011457600080fd5b5061012f600480360361012a9190810190610c24565b61068c565b60405161013c9190610e8d565b60405180910390f35b34801561015157600080fd5b5061015a6108f5565b6040516101679190610e04565b60405180910390f35b34801561017c57600080fd5b506101856108fd565b6040516101929190610e8d565b60405180910390f35b3480156101a757600080fd5b506101b0610907565b6040516101bd9190610e8d565b60405180910390f35b3480156101d257600080fd5b506101ed60048036036101e89190810190610bb8565b610926565b6040516101fa9190610e8d565b60405180910390f35b34801561020f57600080fd5b50610218610a6b565b6040516102259190610e8d565b60405180910390f35b34801561023a57600080fd5b50610243610a73565b005b60606000805480602002602001604051908101604052809291908181526020016000905b82821015610482578382906000526020600020906003020160606040519081016040529081600082018054600181600116156101000203166002900480601f0160208091040260200160405190810160405280929190818152602001828054600181600116156101000203166002900480156103265780601f106102fb57610100808354040283529160200191610326565b820191906000526020600020905b81548152906001019060200180831161030957829003601f168201915b50505050508152602001600182018054600181600116156101000203166002900480601f0160208091040260200160405190810160405280929190818152602001828054600181600116156101000203166002900480156103c85780601f1061039d576101008083540402835291602001916103c8565b820191906000526020600020905b8154815290600101906020018083116103ab57829003601f168201915b50505050508152602001600282018054600181600116156101000203166002900480601f01602080910402602001604051908101604052809291908181526020018280546001816001161561010002031660029004801561046a5780601f1061043f5761010080835404028352916020019161046a565b820191906000526020600020905b81548152906001019060200180831161044d57829003601f168201915b50505050508152505081526020019060010190610269565b50505050905090565b60008181548110151561049a57fe5b9060005260206000209060030201600091509050806000018054600181600116156101000203166002900480601f0160208091040260200160405190810160405280929190818152602001828054600181600116156101000203166002900480156105465780601f1061051b57610100808354040283529160200191610546565b820191906000526020600020905b81548152906001019060200180831161052957829003601f168201915b505050505090806001018054600181600116156101000203166002900480601f0160208091040260200160405190810160405280929190818152602001828054600181600116156101000203166002900480156105e45780601f106105b9576101008083540402835291602001916105e4565b820191906000526020600020905b8154815290600101906020018083116105c757829003601f168201915b505050505090806002018054600181600116156101000203166002900480601f0160208091040260200160405190810160405280929190818152602001828054600181600116156101000203166002900480156106825780601f1061065757610100808354040283529160200191610682565b820191906000526020600020905b81548152906001019060200180831161066557829003601f168201915b5050505050905083565b6000806001905061069b610a87565b6060604051908101604052808781526020018681526020018581525090506000808054905011156108545760008090505b60008054905081101561084e57600161079d886000848154811015156106ee57fe5b90600052602060002090600302016000018054600181600116156101000203166002900480601f0160208091040260200160405190810160405280929190818152602001828054600181600116156101000203166002900480156107935780601f1061076857610100808354040283529160200191610793565b820191906000526020600020905b81548152906001019060200180831161077657829003601f168201915b5050505050610926565b141561083c576000829080600181540180825580915050906001820390600052602060002090600302016000909192909190915060008201518160000190805190602001906107ed929190610aa9565b50602082015181600101908051906020019061080a929190610aa9565b506040820151816002019080519060200190610827929190610aa9565b50505050610833610a73565b60019250610841565b600092505b80806001019150506106cc565b506108e9565b60008190806001815401808255809150509060018203906000526020600020906003020160009091929091909150600082015181600001908051906020019061089e929190610aa9565b5060208201518160010190805190602001906108bb929190610aa9565b5060408201518160020190805190602001906108d8929190610aa9565b505050506108e4610a73565b600191505b81925050509392505050565b600033905090565b6000600154905090565b60003373ffffffffffffffffffffffffffffffffffffffff1631905090565b60008151835114151561093c5760019050610a65565b60008090505b8351811015610a5f57828181518110151561095957fe5b9060200101517f010000000000000000000000000000000000000000000000000000000000000090047f0100000000000000000000000000000000000000000000000000000000000000027effffffffffffffffffffffffffffffffffffffffffffffffffffffffffffff191684828151811015156109d457fe5b9060200101517f010000000000000000000000000000000000000000000000000000000000000090047f0100000000000000000000000000000000000000000000000000000000000000027effffffffffffffffffffffffffffffffffffffffffffffffffffffffffffff1916141515610a52576001915050610a65565b8080600101915050610942565b50600090505b92915050565b600043905090565b600160008154809291906001019190505550565b6060604051908101604052806060815260200160608152602001606081525090565b828054600181600116156101000203166002900490600052602060002090601f016020900481019282601f10610aea57805160ff1916838001178555610b18565b82800160010185558215610b18579182015b82811115610b17578251825591602001919060010190610afc565b5b509050610b259190610b29565b5090565b610b4b91905b80821115610b47576000816000905550600101610b2f565b5090565b90565b600082601f8301121515610b6157600080fd5b8135610b74610b6f82610ed5565b610ea8565b91508082526020830160208301858383011115610b9057600080fd5b610b9b838284610f77565b50505092915050565b6000610bb08235610f6d565b905092915050565b60008060408385031215610bcb57600080fd5b600083013567ffffffffffffffff811115610be557600080fd5b610bf185828601610b4e565b925050602083013567ffffffffffffffff811115610c0e57600080fd5b610c1a85828601610b4e565b9150509250929050565b600080600060608486031215610c3957600080fd5b600084013567ffffffffffffffff811115610c5357600080fd5b610c5f86828701610b4e565b935050602084013567ffffffffffffffff811115610c7c57600080fd5b610c8886828701610b4e565b925050604084013567ffffffffffffffff811115610ca557600080fd5b610cb186828701610b4e565b9150509250925092565b600060208284031215610ccd57600080fd5b6000610cdb84828501610ba4565b91505092915050565b610ced81610f31565b82525050565b6000610cfe82610f0e565b80845260208401935083602082028501610d1785610f01565b60005b84811015610d50578383038852610d32838351610d97565b9250610d3d82610f24565b9150602088019750600181019050610d1a565b508196508694505050505092915050565b6000610d6c82610f19565b808452610d80816020860160208601610f86565b610d8981610fb9565b602085010191505092915050565b60006060830160008301518482036000860152610db48282610d61565b91505060208301518482036020860152610dce8282610d61565b91505060408301518482036040860152610de88282610d61565b9150508091505092915050565b610dfe81610f63565b82525050565b6000602082019050610e196000830184610ce4565b92915050565b60006020820190508181036000830152610e398184610cf3565b905092915050565b60006060820190508181036000830152610e5b8186610d61565b90508181036020830152610e6f8185610d61565b90508181036040830152610e838184610d61565b9050949350505050565b6000602082019050610ea26000830184610df5565b92915050565b6000604051905081810181811067ffffffffffffffff82111715610ecb57600080fd5b8060405250919050565b600067ffffffffffffffff821115610eec57600080fd5b601f19601f8301169050602081019050919050565b6000602082019050919050565b600081519050919050565b600081519050919050565b6000602082019050919050565b6000610f3c82610f43565b9050919050565b600073ffffffffffffffffffffffffffffffffffffffff82169050919050565b6000819050919050565b6000819050919050565b82818337600083830152505050565b60005b83811015610fa4578082015181840152602081019050610f89565b83811115610fb3576000848401525b50505050565b6000601f19601f830116905091905056fea265627a7a72305820ef6a27d59a2c2dfbe87849744a0eec6ce3def744e5a637ce4108510b34e851fd6c6578706572696d656e74616cf50037",
  "source": "pragma solidity >=0.4.31 <0.7.0;\npragma experimental ABIEncoderV2;\ncontract SimpleStorage {\n  struct Filemsg{\n    string filehash;\n    string filename;\n    string owner;\n  }\n  Filemsg[] public storedData;\n  uint filenumbers = 0;\n  address user = msg.sender;\n  function setFilemsg(string memory hash,string memory filename,string memory owner) public  returns(uint) {//x是想要存链的文件的hash,y是上传文件的时候上传的账户\n    uint flag = 1;\n    Filemsg  memory temp = Filemsg(hash,filename,owner);\n    if(storedData.length>0){\n     for(uint i = 0;i < storedData.length ; i ++ ){\n      if(utilCompareInternal(hash,storedData[i].filehash)==1)//hash值未存在,可以上传\n        {\n            storedData.push(temp);\n            addFilenumber();\n            flag = 1;\n        }\n        else{\n          flag = 0;\n        }\n        }\n    }\n    else{\n       storedData.push(temp);\n       addFilenumber();\n       flag = 1;\n    }\n    return flag;\n}\n  function utilCompareInternal(string memory a, string memory b) public  pure  returns (uint) {\n    if (bytes(a).length != bytes(b).length) {\n        return 1;//说明两个字符串不等\n    }\n    for (uint i = 0; i < bytes(a).length; i ++) {\n        if(bytes(a)[i] != bytes(b)[i]) {\n            return 1;\n        }\n    }\n    return 0;//说明两个字符串相等\n}\n  function getFile() public view returns (Filemsg[] memory){\n    return storedData;\n  }\n  function getBlocknumber()  public  view returns (uint){\n    return block.number;\n  }\n  function getUserbalance() public view returns (uint){\n    return msg.sender.balance;\n  }\n   function getUser() public view returns (address){\n    return msg.sender;\n  }\n  function addFilenumber() public  {\n   filenumbers ++;\n  }\n   function getFilenumber() public view returns (uint){\n   return filenumbers ;\n  }\n\n}\n",
  "sourcePath": "D:/truffle/react/contracts/SimpleStorage.sol",
  "compiler": {
    "name": "solc",
    "version": "0.5.0+commit.1d4f565a.Emscripten.clang"
  },
  "schemaVersion": "3.0.1",
  "updatedAt": "2020-04-08T11:40:56.523Z",
  "devdoc": {
    "methods": {}
  },
  "userdoc": {
    "methods": {}
  }
}