{
  "contractName": "SimpleStorage",
  "abi": [
    {
      "constant": false,
      "inputs": [
        {
          "name": "x",
          "type": "string"
        },
        {
          "name": "y",
          "type": "string"
        }
      ],
      "name": "setFile",
      "outputs": [
        {
          "name": "",
          "type": "uint256"
        }
      ],
      "payable": false,
      "stateMutability": "nonpayable",
      "type": "function",
      "signature": "0xa1478ed0"
    },
    {
      "constant": true,
      "inputs": [
        {
          "name": "a",
          "type": "string"
        },
        {
          "name": "b",
          "type": "string"
        }
      ],
      "name": "utilCompareInternal",
      "outputs": [
        {
          "name": "",
          "type": "uint256"
        }
      ],
      "payable": false,
      "stateMutability": "pure",
      "type": "function",
      "signature": "0x8ddbeb07"
    },
    {
      "constant": true,
      "inputs": [],
      "name": "getFile",
      "outputs": [
        {
          "name": "",
          "type": "string[]"
        }
      ],
      "payable": false,
      "stateMutability": "view",
      "type": "function",
      "signature": "0x2fa81692"
    },
    {
      "constant": false,
      "inputs": [
        {
          "name": "y",
          "type": "string"
        }
      ],
      "name": "setOwner",
      "outputs": [],
      "payable": false,
      "stateMutability": "nonpayable",
      "type": "function",
      "signature": "0x0b8076ec"
    },
    {
      "constant": true,
      "inputs": [],
      "name": "getOwner",
      "outputs": [
        {
          "name": "",
          "type": "string"
        }
      ],
      "payable": false,
      "stateMutability": "view",
      "type": "function",
      "signature": "0x893d20e8"
    },
    {
      "constant": true,
      "inputs": [],
      "name": "getBalance",
      "outputs": [
        {
          "name": "",
          "type": "uint256"
        }
      ],
      "payable": false,
      "stateMutability": "view",
      "type": "function",
      "signature": "0x12065fe0"
    },
    {
      "constant": true,
      "inputs": [],
      "name": "getBlocknumber",
      "outputs": [
        {
          "name": "",
          "type": "uint256"
        }
      ],
      "payable": false,
      "stateMutability": "view",
      "type": "function",
      "signature": "0xc8d2db78"
    },
    {
      "constant": false,
      "inputs": [],
      "name": "setUser",
      "outputs": [],
      "payable": false,
      "stateMutability": "nonpayable",
      "type": "function",
      "signature": "0x0fa33d13"
    },
    {
      "constant": true,
      "inputs": [],
      "name": "getUser",
      "outputs": [
        {
          "name": "",
          "type": "address"
        }
      ],
      "payable": false,
      "stateMutability": "view",
      "type": "function",
      "signature": "0x832880e7"
    },
    {
      "constant": true,
      "inputs": [],
      "name": "getUserbalance",
      "outputs": [
        {
          "name": "",
          "type": "uint256"
        }
      ],
      "payable": false,
      "stateMutability": "view",
      "type": "function",
      "signature": "0x86d1a26b"
    },
    {
      "constant": false,
      "inputs": [],
      "name": "addFilenumber",
      "outputs": [],
      "payable": false,
      "stateMutability": "nonpayable",
      "type": "function",
      "signature": "0xd504af39"
    },
    {
      "constant": true,
      "inputs": [],
      "name": "getFilenumber",
      "outputs": [
        {
          "name": "",
          "type": "uint256"
        }
      ],
      "payable": false,
      "stateMutability": "view",
      "type": "function",
      "signature": "0x86ac9626"
    }
  ],
  "bytecode": "0x6080604052600060015533600360006101000a81548173ffffffffffffffffffffffffffffffffffffffff021916908373ffffffffffffffffffffffffffffffffffffffff16021790555034801561005657600080fd5b50610d4f806100666000396000f3fe6080604052600436106100ba576000357c0100000000000000000000000000000000000000000000000000000000900463ffffffff1680630b8076ec146100bf5780630fa33d13146100e857806312065fe0146100ff5780632fa816921461012a578063832880e71461015557806386ac96261461018057806386d1a26b146101ab578063893d20e8146101d65780638ddbeb0714610201578063a1478ed01461023e578063c8d2db781461027b578063d504af39146102a6575b600080fd5b3480156100cb57600080fd5b506100e660048036036100e191908101906109d3565b6102bd565b005b3480156100f457600080fd5b506100fd6102d7565b005b34801561010b57600080fd5b5061011461031a565b6040516101219190610bd7565b60405180910390f35b34801561013657600080fd5b5061013f610339565b60405161014c9190610b93565b60405180910390f35b34801561016157600080fd5b5061016a610422565b6040516101779190610b78565b60405180910390f35b34801561018c57600080fd5b5061019561042a565b6040516101a29190610bd7565b60405180910390f35b3480156101b757600080fd5b506101c0610434565b6040516101cd9190610bd7565b60405180910390f35b3480156101e257600080fd5b506101eb610475565b6040516101f89190610bb5565b60405180910390f35b34801561020d57600080fd5b5061022860048036036102239190810190610a14565b610517565b6040516102359190610bd7565b60405180910390f35b34801561024a57600080fd5b5061026560048036036102609190810190610a14565b61065c565b6040516102729190610bd7565b60405180910390f35b34801561028757600080fd5b506102906108bc565b60405161029d9190610bd7565b60405180910390f35b3480156102b257600080fd5b506102bb6108c4565b005b80600290805190602001906102d39291906108d8565b5050565b33600360006101000a81548173ffffffffffffffffffffffffffffffffffffffff021916908373ffffffffffffffffffffffffffffffffffffffff160217905550565b60003073ffffffffffffffffffffffffffffffffffffffff1631905090565b60606000805480602002602001604051908101604052809291908181526020016000905b82821015610419578382906000526020600020018054600181600116156101000203166002900480601f0160208091040260200160405190810160405280929190818152602001828054600181600116156101000203166002900480156104055780601f106103da57610100808354040283529160200191610405565b820191906000526020600020905b8154815290600101906020018083116103e857829003601f168201915b50505050508152602001906001019061035d565b50505050905090565b600033905090565b6000600154905090565b6000600360009054906101000a900473ffffffffffffffffffffffffffffffffffffffff1673ffffffffffffffffffffffffffffffffffffffff1631905090565b606060028054600181600116156101000203166002900480601f01602080910402602001604051908101604052809291908181526020018280546001816001161561010002031660029004801561050d5780601f106104e25761010080835404028352916020019161050d565b820191906000526020600020905b8154815290600101906020018083116104f057829003601f168201915b5050505050905090565b60008151835114151561052d5760019050610656565b60008090505b835181101561065057828181518110151561054a57fe5b9060200101517f010000000000000000000000000000000000000000000000000000000000000090047f0100000000000000000000000000000000000000000000000000000000000000027effffffffffffffffffffffffffffffffffffffffffffffffffffffffffffff191684828151811015156105c557fe5b9060200101517f010000000000000000000000000000000000000000000000000000000000000090047f0100000000000000000000000000000000000000000000000000000000000000027effffffffffffffffffffffffffffffffffffffffffffffffffffffffffffff1916141515610643576001915050610656565b8080600101915050610533565b50600090505b92915050565b6000806001905060008080549050111561085d5760008090505b6000805490508110156108575760016107408660008481548110151561069857fe5b906000526020600020018054600181600116156101000203166002900480601f0160208091040260200160405190810160405280929190818152602001828054600181600116156101000203166002900480156107365780601f1061070b57610100808354040283529160200191610736565b820191906000526020600020905b81548152906001019060200180831161071957829003601f168201915b5050505050610517565b1480156107f0575060006107ee8560028054600181600116156101000203166002900480601f0160208091040260200160405190810160405280929190818152602001828054600181600116156101000203166002900480156107e45780601f106107b9576101008083540402835291602001916107e4565b820191906000526020600020905b8154815290600101906020018083116107c757829003601f168201915b5050505050610517565b145b156108455760008590806001815401808255809150509060018203906000526020600020016000909192909190915090805190602001906108329291906108d8565b505061083c6108c4565b6001915061084a565b600091505b8080600101915050610676565b506108b2565b610866836102bd565b60008490806001815401808255809150509060018203906000526020600020016000909192909190915090805190602001906108a39291906108d8565b50506108ad6108c4565b600190505b8091505092915050565b600043905090565b600160008154809291906001019190505550565b828054600181600116156101000203166002900490600052602060002090601f016020900481019282601f1061091957805160ff1916838001178555610947565b82800160010185558215610947579182015b8281111561094657825182559160200191906001019061092b565b5b5090506109549190610958565b5090565b61097a91905b8082111561097657600081600090555060010161095e565b5090565b90565b600082601f830112151561099057600080fd5b81356109a361099e82610c1f565b610bf2565b915080825260208301602083018583830111156109bf57600080fd5b6109ca838284610cc2565b50505092915050565b6000602082840312156109e557600080fd5b600082013567ffffffffffffffff8111156109ff57600080fd5b610a0b8482850161097d565b91505092915050565b60008060408385031215610a2757600080fd5b600083013567ffffffffffffffff811115610a4157600080fd5b610a4d8582860161097d565b925050602083013567ffffffffffffffff811115610a6a57600080fd5b610a768582860161097d565b9150509250929050565b610a8981610c86565b82525050565b6000610a9a82610c58565b80845260208401935083602082028501610ab385610c4b565b60005b84811015610aec578383038852610ace838351610b33565b9250610ad982610c79565b9150602088019750600181019050610ab6565b508196508694505050505092915050565b6000610b0882610c6e565b808452610b1c816020860160208601610cd1565b610b2581610d04565b602085010191505092915050565b6000610b3e82610c63565b808452610b52816020860160208601610cd1565b610b5b81610d04565b602085010191505092915050565b610b7281610cb8565b82525050565b6000602082019050610b8d6000830184610a80565b92915050565b60006020820190508181036000830152610bad8184610a8f565b905092915050565b60006020820190508181036000830152610bcf8184610afd565b905092915050565b6000602082019050610bec6000830184610b69565b92915050565b6000604051905081810181811067ffffffffffffffff82111715610c1557600080fd5b8060405250919050565b600067ffffffffffffffff821115610c3657600080fd5b601f19601f8301169050602081019050919050565b6000602082019050919050565b600081519050919050565b600081519050919050565b600081519050919050565b6000602082019050919050565b6000610c9182610c98565b9050919050565b600073ffffffffffffffffffffffffffffffffffffffff82169050919050565b6000819050919050565b82818337600083830152505050565b60005b83811015610cef578082015181840152602081019050610cd4565b83811115610cfe576000848401525b50505050565b6000601f19601f830116905091905056fea265627a7a72305820979ddebdfb0c7f7b1084699567d69bc46ed838b2cb72198e3add5c74e0e9b74a6c6578706572696d656e74616cf50037",
  "source": "pragma solidity >=0.4.31 <0.7.0;\npragma experimental ABIEncoderV2;\ncontract SimpleStorage {\n  string[] storedData;\n  uint filenumbers = 0;\n  string owner;\n  address user = msg.sender;\n  function setFile(string memory x,string memory y) public  returns(uint) {//x是想要存链的文件的hash,y是上传文件的时候上传的账户\n    uint flag = 1;\n    if(storedData.length>0){\n     for(uint i = 0;i < storedData.length ; i ++ ){\n      if(utilCompareInternal(x,storedData[i])==1&&utilCompareInternal(y,owner)==0)//hash值未存在,可以上传\n        {\n            storedData.push(x);\n            addFilenumber();\n            flag = 1;\n        }\n        else{\n          flag = 0;\n        }\n        }\n    }\n    else{\n       setOwner(y);\n       storedData.push(x);\n       addFilenumber();\n      flag = 1;\n    }\n    return flag;\n}\n  function utilCompareInternal(string memory a, string memory b) public  pure  returns (uint) {\n    if (bytes(a).length != bytes(b).length) {\n        return 1;//说明两个字符串不等\n    }\n    for (uint i = 0; i < bytes(a).length; i ++) {\n        if(bytes(a)[i] != bytes(b)[i]) {\n            return 1;\n        }\n    }\n    return 0;//说明两个字符串相等\n}\n  function getFile() public view returns (string[] memory){\n    return storedData;\n  }\n  function setOwner(string memory y)public{\n    owner = y;\n  }\n  function getOwner() public view returns (string memory){\n    return owner;\n  }\n  function getBalance()  public  view returns (uint){\n    return address(this).balance;\n  }\n  function getBlocknumber()  public  view returns (uint){\n    return block.number;\n  }\n  function setUser() public  {\n    user = msg.sender;\n  }\n   function getUser()public view returns (address){\n    return msg.sender;\n  }\n  function getUserbalance() public view returns (uint){\n    return user.balance;\n  }\n  function addFilenumber() public  {\n   filenumbers ++;\n  }\n   function getFilenumber() public view returns (uint){\n   return filenumbers ;\n  }\n\n}\n",
  "sourcePath": "D:/truffle/react/contracts/SimpleStorage.sol",
  "compiler": {
    "name": "solc",
    "version": "0.5.0+commit.1d4f565a.Emscripten.clang"
  },
  "schemaVersion": "3.0.1",
  "updatedAt": "2020-04-01T14:53:55.312Z",
  "devdoc": {
    "methods": {}
  },
  "userdoc": {
    "methods": {}
  }
}